:1000000015EF00F0EA6A070EE96EEF500DE0020E00
:10001000016E006A002EFED7012EFBD7970E006EF0
:10002000002EFED7EF2EF3D71200F86AD09EEA6AB0
:10003000E96AC150C00B0F09C16E070EB46E010E04
:10004000066E000E936E8A6A056A055004080AE37C
:100050008A6A640E076ED6DF8A68640E076ED2DF86
:10006000052AF3D78A6A056A0550070808E3640E73
:10007000076EC8DF06C08AFF0646052AF5D7064286
:10008000056A0550070808E3640E076EBBDF06C06B
:100090008AFF0642052AF5D7010E066E640E076E2A
:0600A000B1DFD2D703001E
:020000040030CA
:0E00000027CC3E1E008781000FC00FE00F408E
:00000001FF
;PIC18F2550
;CRC=EBE6  CREATED="24-ago-12 09:04"
