:1000000000308A004D2900000A108A100A11820768
:100010004D346934633472346F3463346F346E3406
:10002000743472346F346C34613464346F347234C9
:1000300065347334203450344934433420343134FB
:100040003634463438343734363441342E340D3473
:100050000A3400340A108A100A11820747347234B5
:100060006134763461346E3464346F3420346E34E9
:1000700061342034203445344534503452344F34C4
:100080004D342E342E342E340D340A3400340A10FC
:100090008A100A1182075034723465347334733411
:1000A00069346F346E346534203442343134203452
:1000B000703461347234613420347634653472348F
:1000C0002E340D340A3400340A108A100A118207C3
:1000D000563461346C346F34723420346C34693487
:1000E00064346F3420346E346F34203465346E34AD
:1000F000643465347234653463346F34203430349E
:100100003A342034253463340D340A3400340A1070
:100110008A100A118207563461346C346F34723499
:1001200020346C34693464346F3420346E346F346A
:10013000203465346E346434653472346534633429
:100140006F34203431343A342034253463340D3460
:100150000A3400340A108A100A11820756346134B6
:100160006C346F34723420346C34693464346F34DA
:1001700020346E346F34203465346E346434653426
:100180007234653463346F34203432343A3420347A
:10019000253463340D340A3400340A108A100A11ED
:1001A0008207563461346C346F34723420346C34CA
:1001B000693464346F3420346E346F3420346534E1
:1001C0006E34643465347234653463346F3420348F
:1001D00033343A342034253463340D340A34003453
:1001E0000A108A100A11F73E03188A0A8200563450
:1001F00061346C346F34723420346C346934643458
:100200006F3420346E346F34203465346E3464348B
:1002100065347234653463346F34203434343A34A2
:100220002034253463340D340A3400340A148A101F
:100230000A118207563461346C346F3472342034BE
:100240006C34693464346F3420346E346F34203449
:1002500065346E34643465347234653463346F34B9
:10026000203435343A342034253463340D340A34A0
:100270000034223084008313000803194C29023013
:10028000F800F701F70B4229F80B41299730F700E6
:10029000F70B4829800B3F290034840183131F305A
:1002A0008305193083169900A2309800903083128C
:1002B000980083161F149F141F159F1107309C0070
:1002C0008312A10121080420A10AF70077080C1E5F
:1002D0006729990021302102031D6229A10121080B
:1002E0002A20A10AF70077080C1E742999001830FB
:1002F0002102031D6F2903178D0141308C008316E5
:100300008C130C15831203130B08F7008B13831641
:10031000031755308D00AA308D008C148C188E294F
:100320000C117708831203138B04013003178D001F
:1003300043308C0083168C130C15831203130B08A7
:10034000F7008B138316031755308D00AA308D00EC
:100350008C148C18A9290C117708831203138B04B1
:10036000023003178D0045308C0083168C130C155A
:10037000831203130B08F7008B13831603175530F2
:100380008D00AA308D008C148C18C4290C117708AC
:10039000831203138B04033003178D0050308C003D
:1003A00083168C130C15831203130B08F7008B13A1
:1003B0008316031755308D00AA308D008C148C18CD
:1003C000DF290C117708831203138B040430031701
:1003D0008D0049308C0083168C130C158312031387
:1003E0000B08F7008B138316031755308D00AA30C6
:1003F0008D008C148C18FA290C11770883120313C2
:100400008B04053003178D0043308C0083168C134A
:100410000C15831203130B08F7008B1383160317B5
:1004200055308D00AA308D008C148C18152A0C11B3
:100430007708831203138B040230A100FA30A20064
:100440003921A10B1E2AA10121084720A10AF7008A
:1004500077080C1E292A990018302102031D242A2E
:10046000831605158312051D0D2B03178D018316A9
:100470008C130C1483120C080313A100A201220890
:100480006420A20AF70077080C1E442A99001A304B
:100490002202031D3F2A21080C1E4C2A99000D3010
:1004A0000C1E502A99000A300C1E542A9900013063
:1004B00003178D0083168C130C1483120C0803137E
:1004C000A100A20122088720A20AF70077080C1ECB
:1004D000672A99001A302202031D622A21080C1E85
:1004E0006F2A99000D300C1E732A99000A300C1ED9
:1004F000772A9900023003178D0083168C130C1491
:1005000083120C080313A100A2012208AA20A20A48
:10051000F70077080C1E8A2A99001A302202031D60
:10052000852A21080C1E922A99000D300C1E962A4D
:1005300099000A300C1E9A2A9900033003178D0087
:1005400083168C130C1483120C080313A100A20150
:100550002208CD20A20AF70077080C1EAD2A9900C8
:100560001A302202031DA82A21080C1EB52A990060
:100570000D300C1EB92A99000A300C1EBD2A9900B4
:10058000043003178D0083168C130C1483120C088F
:100590000313A100A2012208F020A20AF7007708A5
:1005A0000C1ED02A99001A302202031DCB2A2108E2
:1005B0000C1ED82A99000D300C1EDC2A99000A3036
:1005C0000C1EE02A9900053003178D0083168C134A
:1005D0000C1483120C080313A100A2012208162197
:1005E000A20AF70077080C1EF32A99001A3022029B
:1005F000031DEE2A21080C1EFB2A99000D300C1E4B
:10060000FF2A99000A300C1E032B99000230A1002A
:0E0610009630A2003921A10B082B302A63007E
:02400E00323F3F
:00000001FF
;PIC16F876A
