:1000000000308A0041280000FF00030E8301A10098
:100010000A08A0008A010408A2007708A300780853
:10002000A4007908A5007A08A6007B08A70083131E
:1000300083120B1E1D288B183028220884002308E9
:10004000F7002408F8002508F9002608FA00270818
:10005000FB0020088A00210E8300FF0E7F0E09009E
:100060008A110A1233280130A80628183928861365
:100070003A2886178316861383128B108A110A1268
:100080001D28840183131F30830583160317090875
:10009000C039890003131F129F1200300317880014
:1000A0008312870188018901031328108316011325
:0A00B000D03083128B045B2863003C
:04400E00E42CFF3F60
:00000001FF
;PIC16F886
;CRC=3B4A  CREATED="10-nov-09 10:59"
