:1000000000308A00CD280000FF00030E8301A1000C
:100010000A08A0008A010408A2007708A300780853
:10002000A4007908A5007A08A6007B08A70083131E
:1000300083128B1E1D280B193028220884002308E8
:10004000F7002408F8002508F9002608FA00270818
:10005000FB0020088A00210E8300FF0E7F0E09009E
:100060008A110A123328A80A2808033C03183A28E0
:100070000130A8002808013A03194528033A03195A
:100080005E28013A031973288C2831302B0784002D
:1000900083132C1883170008C3008316860183126C
:1000A0004308860083168501831285010030BB005A
:1000B000831687010130831287008C2831302D0789
:1000C000840083132E1883170008C300831686014B
:1000D0008312430886000030BB008316870102307C
:1000E000831287008C2831302F0784008313301847
:1000F00083170008C3008316860183124308860015
:100100000030BB00831687018312870183168501A7
:100110002030831285008C28643081000B118A11F5
:100120000A121D28F801F901F701FA014108031D1F
:100130009C2840080319B6281030C2000310BE0DD9
:10014000BF0DF70DFA0D41087A02031DA9284008DA
:100150007702031CB2284008F702031CFA03410887
:10016000FA020314F80DF90DC20B9E2800343D303D
:100170008400831300080319CA280230F800F7012D
:10018000F70BC028F80BBF289730F700F70BC628ED
:10019000800BBD288A110A124129840183131F3064
:1001A000830583161F149F141F159F1107309C0091
:1001B0008312A801A901AA013F30B1000630B200A4
:1001C0005B30B3004F30B4006630B5006D30B60020
:1001D0007D30B7000730B8007F30B9006F30BA000B
:1001E000FF30BB00E0308B0483160108C0390338B0
:1001F0008100643083128100A90A0319AA0A2A081F
:10020000023C03180C29FF3A031D0A292908E73C80
:1002100003180C29AA01A9012A08BF002908BE0059
:10022000C1016430C00092207908AC007808AB00AE
:100230002A08BF002908BE00C1010A30C000922070
:100240007908BD007808BC007908BF007808BE00B6
:10025000C1010A30C00092207708AD007A08AE00D4
:100260002A08BF002908BE00C1010A30C000922040
:100270007708AF007A08B0000230BC00FA30BD0049
:0A028000B728BC0B3E29FC286300E0
:02400E00323F3F
:00000001FF
;PIC16F876A
