:1000000015EF00F0EA6A060EE96EEF500DE0020E01
:10001000016E006A002EFED7012EFBD7970E006EF0
:10002000002EFED7EF2EF3D71200F86AD09EEA6AB0
:10003000E96AC150C00B0F09C16E070EB46E140EF1
:10004000926E000E936E030E946E8A6A80A408D09E
:100050008A70020E056E960E066ED4DF052EFBD753
:1000600080A808D08A72020E056E960E066ECADF50
:10007000052EFBD782A008D08A74020E056E960E5C
:10008000066EC0DF052EFBD782A208D08A76020E4C
:10009000056E960E066EB6DF052EFBD7D7D703008A
:020000040030CA
:0E00000027CC3E1E008781000FC00FE00F408E
:00000001FF
;PIC18F2550
;CRC=6E7E  CREATED="24-ago-12 10:36"
