:100000009EEF01F0F76A140FF66E000EF72209005A
:10001000F5501200280C01060C414E30203D2025E1
:1000200030346C75206D56000A54454D503A2025E9
:1000300030326C7525634300EA6A190EE96EEF50A1
:100040000DE0020E016E006A002EFED7012EFBD7D6
:10005000970E006E002EFED7EF2EF3D7120020B0C1
:1000600002D08A9801D08A88939820B202D08A9AC6
:1000700001D08A8A939A20B402D08A9C01D08A8CBB
:10008000939C20B602D08A9E01D08A8E939E93962E
:100090008A8693968A96120093948A941D5202E15E
:1000A0008A9401D08A849394420E006E002EFED76B
:1000B000000093968A961E381F6E0F0E1F161FC0E3
:1000C00020F0CDDF1E500F0B1F6E206EC8DF120018
:1000D00093988A98939A8A9A939C8A9C939E8A9ED4
:1000E00093948A9493968A960F0E196EA5DF010E4B
:1000F0000C6E0C50030808E3030E206EB0DF050EF3
:10010000196E9ADF0C2AF5D7020E206EA8DF0C6A52
:100110000C50030809E3036A0C5074DF0D6E1D6A6E
:100120001E6EBADF0C2AF4D7A9EF01F0146A156A23
:10013000010E166EDA6AD96A196A0C0E186EEA6A2E
:10014000100EE96E19C0E2FF18C0E1FF16C017F0EB
:10015000D890E550EE02F3501422F4501522172ED9
:10016000F7D714C0DEFF15C014F0156AD8B0152AF1
:10017000182AD8B4192A162A16500508E0E11200E8
:10018000D8B203D0EA6A200EE96E006A016A026AF8
:10019000036A206A216A226A236A1F501E101D10FA
:1001A0001C102CE0200E246ED890183619361A3602
:1001B0001B3620362136223623361F50235C08E1B9
:1001C0001E50225C05E11D50215C02E11C50205CA8
:1001D0000FE31C50205E1D50D8A01D3C215E1E5018
:1001E000D8A01E3C225E1F50D8A01F3C235ED880A2
:1001F0000036013602360336242ED6D720C0EFFF54
:1002000021C0ECFF22C0ECFF23C0ECFF12001A2C2F
:1002100001D003D0400E1B6E01D01B6A010E195C89
:100220001B261B5080091C6E1D6A1E6E35DF3CEFBD
:1002300001F018500C0A07E0060A0DE0070A0BE06F
:10024000050A0FE013D01D6A010E1E6E25DF020E97
:10025000196EF2DE11D0010E196E020E1A6ED7D78A
:100260000BD01D6A100E1E6E17DF06D0010E1D6E1C
:1002700018C01EF011DF00D012000900F6CF0DF0FB
:10028000F7CF0EF0F5CF18F0D4DF0DC0F6FF0EC09B
:10029000F7FF0C2EF2D71200E950106E3B0E176ECE
:1002A0009A0E166ECA0E156E146A0A0E126ED88257
:1002B000EA6A0C0EE96E0FC01BF00EC01AF00DC0FA
:1002C00019F00CC018F017C01FF016C01EF015C0B2
:1002D0001DF014C01CF054DF015000520FE1125009
:1002E000010A0CE010500BE00F0B125C01E00CE275
:1002F00010BE0AD010BC03D0200E02D0106A300EFF
:10030000002600C018F095DFD89217C01BF016C069
:100310001AF015C019F014C018F01F6A1E6A1D6A81
:100320000A0E1C6E2DDF03C017F002C016F001C0CC
:1003300015F000C014F0122EBAD71200F86AD09E41
:10034000EA6AE96AC150C00B0F09C16E070EB46EAC
:10035000BFD6C150C00B0B09C16EC050C00B010904
:10036000C06EC08EC28094948B94928880A802D074
:1003700094948B84000E016EC250C30B0110C26EA8
:10038000420E006E002EFED70000C282C2B2FED71F
:10039000C3CF04F0C4CF05F0066A076A07C00FF0A8
:1003A00006C00EF005C00DF004C00CF0136A126A0E
:1003B000130E116E880E106EB9DE03C00FF002C06E
:1003C0000EF001C00DF000C00CF0D89203C01BF07D
:1003D00002C01AF001C019F000C018F01F6A1E6AAE
:1003E000030E1D6E1C68CCDE03C007F002C006F0D1
:1003F00001C005F000C004F00C0E016EC250C30B2A
:100400000110C26E420E006E002EFED70000C282A6
:10041000C2B2FED7C3CF08F0C4CF09F00A6A0B6A94
:100420000BC00FF00AC00EF009C00DF008C00CF0B0
:10043000136A126A010E116EF40E106E77DE03C09D
:100440000FF002C00EF001C00DF000C00CF0D89209
:1004500003C01BF002C01AF001C019F000C018F070
:100460001F6A1E6A030E1D6E1C688ADE03C00BF035
:1004700002C00AF001C009F000C008F0180EF66EC4
:10048000000EF76E070E0C6EF8DE440EE96E07C024
:100490000FF006C00EF005C00DF004C00CF0FCDE3D
:1004A000200E186EC6DE6D0E186EC3DE560E186E68
:1004B000C0DE280EF66E000EF76E070E0C6EDDDE47
:1004C000420EE96E0BC00FF00AC00EF009C00DF02D
:1004D00008C00CF0E1DEDF0E186EABDE430E186EC6
:1004E000A8DE0B5207E10A5205E1095203E1085068
:1004F000270802E294948B94020E0C6EFA0E196E89
:0A0500009BDD0C2EFBD731D7030062
:020000040030CA
:0E00000027CC3E1E008781000FC00FE00F408E
:00000001FF
;PIC18F2550
;CRC=41A7  CREATED="24-ago-12 09:40"
