:1000000000308A00312900000A108A100A11820784
:1000100028340C34013406340A108A100A1182077D
:100020000C342034203420345034493443343134B7
:1000300036344634383437343634413400340A10D8
:100040008A100A1182070A34543445345334543424
:1000500020344C344334443420344434493453340D
:1000600050344C344134593400340A108A100A1187
:100070008207543465347334743420344C3443343C
:100080004434203444346934733470346C3461340F
:10009000793400340A108A100A1182070A34203495
:1000A00020342034503449344334313436344634E7
:1000B000383437343634413420342034203400345A
:1000C0002330840083130008031973280230F800DA
:1000D000F701F70B6928F80B68289730F700F70B42
:1000E0006F28800B662800342A1878280612792891
:1000F0000616831606128312AA18802886128128F3
:1001000086168316861283122A19882806138928D0
:100110000617831606138312AA19902886139128AE
:100120008617831686138611831286158316861109
:100130008312861100348316061183120611A70854
:10014000031DA4280611A5280615831606114230A2
:10015000F700F70BA9280000861183128611280EDC
:10016000A9000F30A9052908AA00742028080F3912
:10017000A900AA0074200034831606128312061206
:1001800083168612831286128316061383120613B1
:1001900083168613831286138316061183120611A3
:1001A00083168611831286110F30A3006020013060
:1001B000A1002108033C031CE5280330AA00742099
:1001C0000530A3006020A10AD9280230AA007420BB
:1001D000A1012108033C031CF62821080420A200E9
:1001E000A7012208A8009B20A10AE9288A110A1267
:1001F0003E2922080C3A03190729063A03190F2948
:10020000073A03190F29053A031925292A29A701B5
:100210000130A8009B200230A3006020302901306B
:10022000A3000230A400240B162919294030A50090
:100230001A29A50101302302A50725088038A60048
:10024000A7012608A8009B203029A7011030A8008C
:100250009B2030290130A7002208A8009B203029CC
:100260000034840183131F30830583161F149F14E9
:100270001F159F1107309C008312BC28A101210883
:100280000C20A10AF700A200F9200E302102031D64
:100290003F29A10121081F20A10AF700A200F9208F
:1002A00011302102031D4A290830A100FA30A300B1
:1002B0006020A10B56290C30A200F920A1012108D1
:1002C0003520A10AF700A200F92010302102031DF9
:1002D0005F29A10121084A20A10AF700A200F92004
:1002E00011302102031D6A290830A100FA30A30051
:1002F0006020A10B7629A10121080C20A10AF7009A
:10030000A200F9200E302102031D7C29A101210841
:100310001F20A10AF700A200F92011302102031DBD
:0603200087295429630047
:02400E00323F3F
:00000001FF
;PIC16F876A
