:1000000000308A0019280000223084008313000881
:10001000031918280130F800F701F70B0D28F80B29
:100020000C284A30F700F70B13281628800B0A28F3
:100030000034840183131F308305831603170908D6
:10004000C039890003131F129F1200300317880064
:100050008312870188018901831603138601FF300B
:10006000831286000430A100FA30A2000420A10B04
:10007000342883168601831286010430A100FA30E9
:0E008000A2000420A10B3F2803172C286300C8
:04400E00E42CFF3F60
:00000001FF
;PIC16F886
;CRC=CB9C  CREATED="09-nov-09 16:51"
