:020000040000FA
:060000005CEF01F01200AC
:020006001200E6
:08000800DACFE4FFE2CFDAFFDA
:10001000E9CFE4FFEACFE4FFE65200016A2B040EC9
:10002000E76E6A19E8AE02D06A3503D0E750D8808F
:100030006A5502E2010E6A6F6A51030A1CE0010A66
:100040000FE0030A01E022D0600E6D25E96E000E7C
:100050006E21EA6EEF50816E010E826E806A16D0BC
:10006000600E6F25E96E000E7021EA6EEF50816E12
:10007000020E826E0BD0600E7125E96E000E7221A9
:10008000EA6EEF50816E826A200E806EF294640EEA
:10009000D66EE552E5CFEAFFE5CFE9FFE5CFDAFF1F
:1000A0001100C168926A936A816A946AC40ED56E1F
:1000B000A00EF26E640ED66E6BC06DF06CC06EF06A
:1000C000640E0D6E0E6A6DC008F06EC009F0F9EC9A
:1000D00000F008C06DF009C06EF06BC06FF06CC02E
:1000E00070F00A0E0D6E0E6A6FC008F070C009F055
:1000F000F9EC00F008C06FF009C070F06BC071F04F
:100100006CC072F00A0E0D6E0E6A71C008F072C0FB
:1001100009F0F9EC00F004C071F005C072F0C80EEF
:10012000E66E1FEC01F0E55200016B2B000E6C2314
:100130006C3504E26B516408000E6C5502E26B6B87
:060140006C6BBAD712003F
:0A0146000100D40200006000000078
:040150001300000098
:0C015400460EF66E010EF76E000EF86EFF
:1001600000010900F550786F0900F550796F03E13F
:10017000786701D03DD00900F550736F0900F55044
:10018000746F0900F550756F09000900F550E96EAC
:100190000900F550EA6E090009000900F550766F74
:1001A0000900F550776F09000900F6CF7AF0F7CF14
:1001B0007BF0F8CF7CF073C0F6FF74C0F7FF75C01A
:1001C000F8FF0001765302E1775307E00900F5508C
:1001D000EE6E7607F8E27707F9D77AC0F6FF7BC0B4
:1001E000F7FF7CC0F8FF00017807000E795BBFD7EE
:0201F0001200FB
:0E01F200006A0EAE02EF01F00D6C0E1EE86A00
:100200000E22001E09AE0AEF01F0086C091EE86A12
:100210000922001E36EC01F009BE1AEF01F000AE13
:10022000000C086C091EE86A0922046C051EE86AC5
:0E0230000522000C00BE11EF01F00188FF0C4A
:02023E00FF0EB1
:10024000E350116EEF0E01D0F30EE76EE72E26EFAE
:1002500001F00C0E106EE76AE72E2CEF01F0102E65
:0C0260002BEF01F0112E24EF01F0120032
:04026C00056A046AB1
:10027000100EE76ED89008360936043605360D5054
:10028000045C0E50055805E30D50045E0E50055AEF
:08029000082AE72EF0D7120046
:08029800000EF36E00EE00F011
:1002A000080E01D81200EA6002D0EE6AFCD7F350C3
:0802B000E9601200EE6AFCD7C0
:0802B80013EE00F023EE00F04C
:1002C000F86A019CAAEC00F003EC00F051EC00F09D
:0402D000FBD7120046
:0C02D4003F065B4F666D7D077F6F0000EA
:0702E0000000000000000017
:020000040030CA
:0100000000FF
:010001000CF2
:010002000EEF
:010003001EDE
:010006008178
:00000001FF
