:020000040000FA
:06000000B8EF09F0120048
:020006001200E6
:060008009CEF06F012005F
:02000E000000F0
:050010000000010000EA
:06001800E7EF06F0120004
:02001E000100DF
:0C0020000E000000B80500000700000002
:04002C0067EC06F087
:10003000A09A6A6A686A706A61EC06F0FCEC05F0E6
:10004000DF6ADF500B6E0C6A080E0B5C000E0C585A
:1000500010E2DF50040DF3CFE9FFF4CFEAFF000E0A
:10006000E926040EEA22EE6AEE6AEE6AEE6ADF2AFA
:10007000E8D76D8C6E6A6D986D9C68A607D06896FF
:100080000501936B986B996B9A6BF7D70501010E7D
:10009000AA6FAB6FAC6BAD6BA06BDF6A020EDF5C5F
:1000A00011E2EA6ADF346AEC06F0EA22EE6AED6AEF
:1000B000EA6ADF3471EC06F0EA22EE6AED6AB5EC2A
:1000C00005F0ECD70501080E8B6F040E8C6F160E31
:1000D000706E0401200E026F040E036F080E016F94
:1000E000840E006F0501816B806BE55287EF05F090
:1000F00067EC06F00501800507E16DBA05D0686A76
:1001000069806988020E806F6850040B05E06950B1
:10011000040B02E068943FDB6DB245D06850010BE0
:1001200009E06950010B06E081DFA08A0501040E99
:10013000806F68906850100B05E06950100B02E06A
:1001400020DB689868AC0FD069AC05D003EC06F0F2
:10015000730E74EC05F0689C0501A85101E0A80736
:10016000A85101E109D96850200B04E06950200B27
:1001700001E0F7DA6850020B0BE06950020B08E06F
:1001800003EC06F0E6687F0EE66E78EC06F06A6A2D
:10019000040E0501E76E8019E8AE02D0E73402D004
:1001A000E750805D02E2A19A2ED069A62BD0DF6ACB
:1001B000040EDF5C27E268A625D06CCFA1F505010F
:1001C000A151780BE842E842E842A26F6896A1B5D7
:1001D00004D0A2517FEC06F003D0A25184EC06F0CB
:1001E000EA22EF70A25102E1E2DA0AD0000EE66ED6
:1001F000E66AA10EE66E050EE66E720E74EC05F070
:10020000DF2AD6D7A19AE55287EF05F03BEC06F03E
:10021000FD0EDBA403D0E66AECEC05F0FD0EDBA2DC
:1002200004D0010EE66EECEC05F0FE0EDB500C6A1D
:10023000700F0B6E0F0EE6EC05F078EC05F0FD0E7E
:10024000DBCFEFFF020EE15C02E2E16AE552E16E14
:1002500087EF05F03BEC06F0FD0EDB5003E06FECA2
:1002600005F002D0A6EC05F0D2EC05F0D9CFE9FFFD
:10027000DACFEAFFEE50ED1003E1F36AF46A28D01A
:1002800078EC05F093EC06F0FB0EDBCFEEFFFC0EF6
:10029000DBCFEDFF78EC05F0EE52FA0EDBCFEFFF8F
:1002A000400E89EC06F0880E98EC06F0FD0EDB504F
:1002B00003E06FEC05F002D0A6EC05F0EA22EF7443
:1002C000DECF0BF0DDCF0CF00BC0F3FF0CC0F4FF62
:1002D000020EE15C02E2E16AE552E16E87EF05F0B1
:1002E0003BEC06F0FE0EDB5003E149EC06F009D0D2
:1002F000ABEC05F029EC06F0ABEC05F0010F29ECB6
:1003000006F0020EE15C02E2E16AE552E16E87EF7F
:1003100005F082EC05F06DA816D05AEC06F0400E00
:10032000EE16EE6AEE6AEE6A5AEC06F0EE7CD7DB69
:10033000EA22EF74400E0B6E5AEC06F00B50EF16EB
:100340005AEC06F0EF7CE3D36D6A696A0501806BB5
:100350001200050180510FE16D6A696AFCEC05F03D
:10036000D08EA28AA08AF28E6DB602D06D86FCD79E
:100370000501010E806F12000501AA5122E1010E54
:10038000AA6FAB511EE1010EAB6F020E905D07E14B
:10039000B4DBEE52EF6AB1DBC80EEF6E12009005CF
:1003A00010E1A36BC0DBEE52080EEF6EBCDB35EC48
:1003B00006F0B9DB840EEF6E010EA36F8CDB800EAE
:1003C000EF6E12000501AC6BAD6B020E905D06E1A5
:1003D0008DEC06F0ADDB24EC06F010D09451040156
:1003E000265D050195510401275904E226C494F5C0
:1003F00027C495F561D881DB9BDB7FDBC80EEF6EF0
:1004000012003BEC06F0000EDE6E040EDD6EA3DB88
:10041000040DF4CF0CF0D9CFE9FFDACFEAFFF350A7
:10042000EE260C50ED2264DBEF9EFD0EDB5002E168
:100430008DDB01D054DBEA22DECFEEFFDDCFEDFF16
:1004400057DBEF9C55DB040EE926000EEA22EF8C09
:10045000020EE15C02E2E16AE552E16E58D36D986A
:10046000050193BF0DD098AF09D0020E906FAD512A
:1004700001E1A8DF0501AB6BAA6B120049EF06F0A2
:10048000040120AF0DD00501010E906FAC5101E1C8
:1004900099DF0501AB6BAA6BA9510DE1BCEF01F02F
:1004A0000501020E906F17DB840EEF6EAB6BAA6B2B
:1004B000A95101E161DF120067EC06F0080EDF6E62
:1004C0000501945D000E95590AE294C5DFFF8F5136
:1004D00002E1010E03D08F0502E1020E8F6FDF50A3
:1004E0000C6AE850945D946F0C509559956F05DB3C
:1004F000EE52DFCFEFFF280E9D6F040E9E6F93B17B
:100500000DD0DF5017E091C5F6FF92C5F7FF912B94
:10051000000E92230800F55038DBF3D7DF500AE0D5
:1005200091C5E9FF92C5EAFF912B000E9223EF508F
:100530002CDBF4D7E552EBD29EDBF5DAEE52EFCFAF
:10054000DFFFDFCF0BF00B500501995D000E9A59CC
:1005500002E299C5DFFFDF500B6E0C6AE850995D2F
:10056000996F0C509A599A6F010EDB6ADF50F36E47
:10057000010EDBCFF4FFF350F45C16E2010EDB500A
:10058000EA6A280FE96E040EEA22EF50E66E96C57D
:10059000E9FF97C5EAFF962B000E9723E552E75037
:1005A000EF6E010EDB2AE2D7000ED8809955000EBF
:1005B0009A550DE2B2DBBCDAB6DAEF50400B03E13C
:1005C00043DBC80E02D040DB880EEF6E12D083DA18
:1005D000840EEF6E9B519C1107E005D09CC5FAFF7D
:1005E00005019B51F96EFADF0501989FA95101E1C0
:1005F000C3DE020EE15C02E2E16AE552E16E87D2FF
:1006000066DB0501938F5DDB200EE66EE66AE66A27
:10061000000EE66E040E92DA6D8CDF6A020EDF5C6D
:1006200002E2A3DAFBD70BDB820EE66E050E86DA5A
:100630006D9C0501080E8B6F040E8C6F000E836F8E
:10064000040E846F83C585F5866F22C481F58151C0
:1006500002E1100E0BD0010EE66EE66A810EE66E28
:10066000050EE66E010E40DA0501200E806FE552A0
:100670004ED2800E0401205D38E10501C00E936F5B
:1006800004012351030A1AE0010A09E0030A2BE1DD
:100690000501160E916F110E926F120E1ED0C1DA67
:1006A000D30EF626110EA0DA020E0501B3DAF5CF4D
:1006B00094F5030EAFDAF5CF95F51200030E225D27
:1006C0000FE2AFDAD50EF626110E8EDA91C5F6FFDF
:1006D00092C5F7FF0800F5500501946F956B120065
:1006E0000501936B12000501936B1200C4DA04013B
:1006F000286B296B20511F0B020A11E0030A0CE042
:10070000010A1EE10501938F0401288105019F055F
:1007100017E10401288314D00501938F11D005013E
:10072000938F040124BF02D0BBDA01D0BEDA3ADADB
:10073000C4DA06E0DDD9EF50040B02E0010E286FA9
:10074000050193AF07D0280E916F040E926F93812D
:10075000020E946F020EE15C02E2E16AE552E16E84
:10076000D6D170A00CD0DFD9EF50800807E1C5D9F1
:10077000EF50840803E1D7D98C0EEF6E7090689A21
:100780001200698468986D820501010EA06F10DA6D
:10079000750E74EF05F00501A06B0ADA740EA4D98A
:1007A0006D92699468A402D06894FCD712008FDA25
:1007B00005012D0EA86FFD0EA11539E17E0EA115C4
:1007C000E8407F0B040DF3CF83F5F4CF84F5000EE2
:1007D0008327040E842383C585F584C586F5857536
:1007E000A2D9EF503C0BE842E8420D081EE1DF6A57
:1007F000080EDF5C16E297D9020EE926000EBFD97B
:10080000EF50E66EDF50EA6A200FE96E040EEA222E
:10081000E552E750EF6E87D986DAEE2AEF22DF2A1B
:10082000E7D781D922DA0AD807D023D805D0FD0E20
:10083000A115040801E12CD8E55269D105018F6B9F
:10084000A96BAC6BAD6BA36B906B57D9EF9E8B759F
:1008500054D9EF9E8B75F8D9EF9E936B946B956B83
:10086000986B996B9A6B4ED8A3D9030E3DD92FEF95
:1008700002F0020E0501905D02E19CEF02F0906B28
:10088000A35104E128D98C0EEF6E1200A36B120065
:100890001EDA33D9EF50400B01E0010EDF6E050187
:1008A0008B75080E805D08E122C46EFF6E5002E079
:1008B000100E01D0040E806F900513E11ED938D9B7
:1008C000FBDD020E05018F5D03E117D9840E07D011
:1008D000DF5003E112D9C80E02D00FD9880EEF6E97
:1008E0000FD098AF0CD09B519C1107E005D09CC550
:1008F000FAFF05019B51F96EFADF0501989F906B95
:10090000E55205D104012051600BE842E842E8427B
:10091000E842E842000901E0120021510C0A45E0DA
:100920000B0A3FE00C0A31E0010A22E00B0A1EE04C
:10093000020A1CE0030A18E0080A10E0010A0CE0B1
:100940000F0A08E0030A01E012000501938F080E68
:10095000806F120039EF03F000EF03F00501810E04
:10096000916F050E926F0CD076EF03F0D6EF04F086
:1009700024510501916F926B820E9127050E9223EF
:100980009381010E946F938F12000501938F0401E0
:100990002451EA6A820FE96E050EEA2222C4EFFFB3
:1009A000120006D9020E74EF05F01200ABD8050E46
:1009B000E1260401220510E120511F0B00090CE182
:1009C0000501938F030E0401215D04E10501010E71
:1009D0009F6F02D005019F6B0401225101E074D08A
:1009E00020511F0B020870E124510F0B00096CE02D
:1009F00024510F0B010868E3200E0501805D64E1BE
:100A0000938F040124BF04D04BD9CCD8D7D803D0BE
:100A10004CD9C8D8D7D8EA22020EEFCFDBFF08D9CD
:100A2000010B03E1000EDF9401D0DF8424BF02D06C
:100A300037D901D03AD9EA22DECFEEFFDDCFEDFF84
:100A4000030E215D0CE139D907E024BF02D0B6D8EE
:100A500001D0B8D8EA22EF82840E6AD935D0DF748B
:100A60002CD906E045D8EF9E43D8EF8C08D902D0A8
:100A70003FD8EF8CDF74DCD8020B02E11ED90DE009
:100A8000040124BF02D09AD801D09CD8EA22EF9268
:100A90003B0E0B6E3ED9F3D802D03B0E3AD904017F
:100AA00024510F0B0C6A700F0B6E0F0E0C22030EED
:100AB0000BC0DBFF040E0CC0DBFF030EDBCFE9FF36
:100AC000040EDBCFEAFFEF90050EE15C02E2E16A83
:100AD000E552E16E1CD021D9C8D824EF06F0FE0EF5
:100AE000EA6ADB346AEF06F0E66EE66A78EF06F053
:100AF000DECFE9FFDDCFEAFF12008BC5E9FF8CC531
:100B0000EAFF1200D9CFE6FFE1CFD9FF1200E5528C
:100B1000E7CFD9FF120024510F0BE96EEA6AD89093
:100B2000E936EA36120083C5E9FF84C5EAFF120000
:100B3000FAD8280EEE6E040EED6E1200E66E9EECF4
:100B400009F00B6E050EE15E0B501200FE0EEA6A14
:100B5000DB3471EF06F0FD0EDB50E8240D6EFE0E67
:100B6000DB50040DF3500D241200DF50CDD8EA22E3
:100B7000EF6ADF50C4D8EA22EF6ADF2A1200EA22C5
:100B8000EE50EFCFEAFFE96E1200E66E9DC5E9FF79
:100B90009EC5EAFF9D2B000E9E23E552E750EF6EA7
:100BA000DF061200EA22EECFDEFFEDCFDDFF1200FE
:100BB000000EE66EE66AE66EE66A120024510F0B3E
:100BC0007FEF06F024510F0B84EF06F00C220BC0D0
:100BD000DEFF0CC0DDFF1200FE0EDBCFE6FF01ECF6
:100BE00002F0E552E5521200F7220900F5CF91F527
:100BF0000A00F5CF92F51200160E6F6E9F0E6B6E07
:100C00007B0E696E1200010EE66EE66A000EE66E5D
:100C1000E66A1200F76A9125F66E9251F7220800F3
:100C200012002251F66EF76AD890F636F7361200A7
:100C3000D950020FE96EDACFEAFFEF501200010E31
:100C4000E66EE66AE66A120085C5E9FF86C5EAFF38
:100C50001200040DF3CF0BF0F4CF0CF0000E0B26B6
:100C6000040EB4DF840E98EF06F05DD8200EEE6E11
:100C7000040EED6E120046DF020EE1261200020E97
:100C8000E66EE66ADECFE6FFDDCFE6FF050E74EF27
:100C900005F021DF8C0EEF6E30DF840EEF6E120058
:100CA0003ADF870EE926050E120035DF8B0EE926A6
:100CB000050E120014DFBFEF05F01ADFEF50800BB6
:100CC0001200BDDF710EE66E0F0E9EEF05F01ADF0B
:100CD000E6521200FE0BEA36E96E8B0EE926050E8F
:100CE0001200FE0BEA36E96E870EE926050E1200A9
:100CF00021EC08F00B6E060EE15E0B501200EA6A62
:100D0000A60FE96E050E1200EA6AA40FE96E050E41
:100D10001200EEDEE850EF16120096DFEE52080EDB
:100D2000EF6E24EF06F0020EE926000EEA22120012
:080D3000DFDEE850EF121200B3
:080D3800DACFE4FFE2CFDAFF9D
:100D4000E9CFE4FFEACFE4FFF6CFE4FFF7CFE4FF1B
:100D5000F5CFE4FFF3CFE4FFF4CFE4FFFACFE4FFF5
:100D600000EE00F00B0EE80403E3EECFE4FFFBD748
:100D700000EE0BF0030EE80403E3EECFE4FFFBD735
:100D8000E65278EC00F0E55200EE0DF0030EE804B8
:100D900003E3E5CFEDFFFBD700EE0AF00B0EE8040E
:100DA00003E3E5CFEDFFFBD7E5CFFAFFE5CFF4FF97
:100DB000E5CFF3FFE5CFF5FFE5CFF7FFE5CFF6FF92
:100DC000E5CFEAFFE5CFE9FFE5CFDAFF1100D8CFA5
:100DD000E4FFE0CFE4FFE46EDACFE4FFE652E55251
:100DE000E5CFDAFFE550E5CFE0FFE5CFD8FF100013
:100DF0000F0EC112F00E8A1693169284928892807A
:100E0000010EC26E3C0EC06EC08E0501B86BB96B90
:100E1000BA6BBB6B010EBC6F16EC00F0A9EC01F0D5
:100E200001D8FED75ED90501BC5101E096D8200E4D
:100E30000501E76E8019E8AE02D0E73402D0E75032
:100E4000805D6AE36D50020B67E10501B851B9118D
:100E500002E1000E08D0B8C5E9FFB9C5EAFFEF50BE
:100E6000800B01E0010E000957E105010051370A2E
:100E70002DE0B60A16E0010A4EE10501BC6B8A506E
:100E8000010B0B6E8A50020B01E0010E0B5C03E1BB
:100E90008A708A7240D08AA002D08A823CD08A921C
:100EA0003AD00501BA51BB1102E1000E03D020D99E
:100EB00001E0010E00092FE10501810E406F80A8BD
:100EC00003D0010E416F1AD0416B18D00501BA5101
:100ED000BB1102E1000E03D00BD901E0010E0009A5
:100EE0001AE121D8F3CFDEFFF4CFDDFF0501370E85
:100EF000406FDFCF41F5010EDBCF42F5400EE66ECD
:100F0000400EE66E050EE66E010EE66EFCD8F3CFDF
:100F1000BAF5F4CFBBF5D7D8020EE15C02E2E16A84
:100F2000E552E16EECD0DDD8DE6ADD6AC282C2B283
:100F3000FED7C350DF6E010EC4CFDBFFDECF0BF058
:100F4000DDCF0CF00BC0F3FF0CC0F4FF020EE15C30
:100F500002E2E16AE552E16ED2D00501BD51BE1157
:100F600004E1100EBD6F270EBE6FBD07000EBE5B05
:100F70006DA207D0BD51BE112EE18A708AB013D088
:100F800027D00501805102E18A9022D0800502E13C
:100F90008A8009D0020E805D02E18A8019D0040E99
:100FA000805D03E18A908A821200100E805D06E166
:100FB0000501BD51BE110FE18A700AD0200E805D7F
:100FC0000AE10501BD51BE1106E18A708AA002D076
:100FD0008A9212008A82120012001200120012007D
:100FE000EEEF08F012001E0EE66E010EE66E06EC45
:100FF00001F0E552E55263EF08F005019F0520E19D
:101000000501A0051DE1A09AE8DF6D920501A06B26
:101010000501100EC16F0E0EC26FC107000EC25B3C
:10102000C151C211FAE16D84080EC16F070EC26F83
:10103000C107000EC25BC151C211FAE16D94A08AD2
:101040001200D9CFE6FFE1CFD9FFFD0EDBCF06F0CE
:10105000FE0EDBCF07F0E868061802E17F0E0718E6
:101060002FE0030E061801E1075028E0020E0618D3
:1010700001E1075021E0010E061801E107501AE0D6
:10108000740E061801E1075013E0750E061801E111
:1010900007500CE0730E061801E1075005E0720ED0
:1010A00006180FE107500DD099DF0BD095DF09D05E
:1010B00094DF07D098DF05D095DF03D091DF01D012
:1010C0008EDF010E1CD0400EE66E000EE66E050EA1
:1010D000E66EE66A010E17D8F3CFB8F5F4CFB9F58E
:1010E0001200D9CFE6FFE1CFD9FF020EE1261200B0
:1010F000BAC5E9FFBBC5EAFFEF50800B1200E5520D
:10110000E7CFD9FF1200E66E2AEC01F00B6E050E58
:06111000E15E0B5012002D
:0A1116001201000200000008D804D6
:101120003F0002000102000109022900010100C084
:10113000320904000002030000000921110100012E
:10114000221C000705810340000107050103400040
:10115000010403090434034D006900630072006F49
:10116000006300680069007000200054006500639F
:101170000068006E006F006C006F0067007900204F
:101180000049006E0063002E002E03530069006DBD
:101190000070006C006500200048004900440020F9
:1011A000004400650076006900630065002000448B
:1011B0000065006D006F000600FF0901A101190123
:1011C00029401501254075089540810019012940E5
:0B11D0009100C0281151115511891128
:0411DC000401205199
:1011E0001F0B010801E01200245101E01200060E5D
:1011F000215D1BE12351230A18E0010A0CE0030AD8
:1012000014E10501810511E105013A0E916F110EFE
:10121000926F090E06D00501B70E916F110E926FF5
:101220001C0E946F956BC00E936F04012051600BE0
:10123000E842E842E842E842E842010801E01200E0
:1012400021510B0A26E0080A19E0090A11E0080AF0
:1012500005E00B0A23E0080A21E012000501BF0E99
:10126000916F050E926F010E946F956BC10E0FD0AA
:101270000501800E936F23C4BFF512000501C00E57
:10128000916F050E926F010E946F956B810E936FA7
:0E12900012000501800E936F22C4C0F51200FB
:02129E001E0E22
:1012A000F66E000EF76E000EF86E05010900F5509F
:1012B000B36F0900F550B46F03E1B36701D03DD0BF
:1012C0000900F550AE6F0900F550AF6F0900F550F9
:1012D000B06F09000900F550E96E0900F550EA6E9B
:1012E000090009000900F550B16F0900F550B26F0F
:1012F00009000900F6CFB5F5F7CFB6F5F8CFB7F589
:10130000AEC5F6FFAFC5F7FFB0C5F8FF0501B15395
:1013100002E1B25307E00900F550EE6EB107F8E2C2
:10132000B207F9D7B5C5F6FFB6C5F7FFB7C5F8FFE1
:0C1330000501B307000EB45BBFD712002C
:04133C00FE0EE3CFEF
:10134000E9FFFF0EE3CFEAFFE9CFF3FFEACFF4FFB7
:10135000FB0EE35003E1FC0EE35009E0FB0EE30655
:1013600002E2FC0EE306FD0EE350EE6EF1D7120032
:1013700013EE00F023EE00F0F86A0A9C4FEC09F03F
:0C13800003EC00F0F8EC06F0FBD71200C4
:020000040030CA
:0100000021DE
:010001000EF0
:010002003FBE
:010003001EDE
:010005008179
:010006008178
:010008000FE8
:01000900C036
:01000A000FE6
:01000B00E014
:01000C000FE4
:01000D0040B2
:00000001FF
