:020000040000FA
:060000003CEF0AF01200C3
:0A0006000100C61400007F00000096
:0400100002000000EA
:0C00140046EC05F0FB0EDBCFF3FFDB0633
:10002000F35000090AE094EC05F0FA0EFFEC05F03D
:10003000F3E1151CF1E1010E01D0000E75EF05F0A2
:1000400046EC05F03B0EE12402E3E168E652E16E86
:10005000010EDB6A020EDB6AF90EDBCFF6FFFA0E49
:10006000DBCFF7FFFB0EDBCFF8FF0800F550DF6EAC
:10007000DF5002E199EF04F0250EDF5C02E08CEF27
:1000800004F0030EDB6A040EDB6A050EDB6A060E63
:10009000DB6A070EDB6AAEEC04F02D0EDF5C0CE0D1
:1000A0002B0EDF5C09E0200EDF5C06E0230EDF5C38
:1000B00003E0300EDF5C1AE1DF50300A14E0130A6F
:1000C0000FE0030A0AE00B0A05E0060AE4E1030E6A
:1000D000DB80E1D7030EDB82DED7030EDB84DBD7C8
:1000E000030EDB86D8D7030EDB88D5D72A0EDF5C5C
:1000F0001BE1AAEC04F0F8EC04F010E0030EDB8046
:1001000006680768130EDBCF0BF0140EDBCF0CF084
:100110007CEC09F0040E04C0DBFF03D0130EE1EC0D
:1001200004F0AEEC04F00BD0090EDB6A4FEC05F0E6
:1001300003E0C3EC05F0FAD7090EE1EC04F0030E7E
:10014000DBB0DB982E0EDF5C1BE1AEEC04F02A0E78
:10015000DF5C0BE1AAEC04F0F8EC04F003E1130E11
:1001600033EC05F0AEEC04F00BD0090EDB6A4FEC7B
:1001700005F003E0C3EC05F0FAD7090E33EC05F007
:10018000680EDF5C07E1AEEC04F0680EDF5C1DE199
:10019000030E18D0740EDF5C17E07A0EDF5C14E0FB
:1001A000480EDF5C06E0540EDF5C03E05A0EDF5CB5
:1001B00002E1020E07D06C0EDF5C03E06A0EDF5C2A
:1001C00004E1010E86EC05F0C9DBDF506E0A01E1A7
:1001D0007FD31E0A01E192D1200A01E18FD13F0AAB
:1001E00001E149D11A0A01E146D10D0A01E143D1E9
:1001F000200A01E140D13A0A01E13DD1200A01E1A2
:100200003AD1260A01E135D10D0A01E132D11A0AAB
:1002100001E1D9D0200A4AE0300A1FE0460A0EE088
:10022000250A01E083D3D950F90FE96EFF0EDA20D9
:10023000EA6E010EEE5E000EEE5AEE5A94EC05F0F8
:10024000250EE66E95DB03E1151C01E169D390EC08
:1002500005F001E26BD3DB2A69D3080EDB6A040EDA
:10026000DB50010806E2040EDB0458EC05F0DB501D
:100270008BDB080EDB5009E0030EDB50010B05E1C0
:1002800072DB01E04DD3080EDB6A64DBEFCFDFFFEA
:1002900008EC06F003E1151C01E142D390EC05F0F7
:1002A00001E3DB2A60DB01E141D33AD3070EDB50E7
:1002B00002080FE1D4EC05F0030E9BEC05F00E0EE6
:1002C000EECFDBFF0F0EEECFDBFF100EEECFDBFF2E
:1002D00020D0F70EDBCF17F0F80EDBCF18F0020EB0
:1002E000175E000E185AF70E17C0DBFFF80E18C085
:1002F000DBFF17C0E9FF18C0EAFF8BEC05F0166AB8
:100300000E0E14C0DBFF0F0E15C0DBFF100E16C063
:10031000DBFF0E0EDBCFE6FF0F0EDBCFE6FF100E8E
:10032000DBCFE6FF57EC09F0E552E552E552130E3C
:1003300005C0DBFF140E06C0DBFF060EDB5005E038
:10034000130ECFEC05F001E26ADBF3EC05F002E2FC
:10035000130E37DBB6EC05F006E0040ECFEC05F02B
:1003600002E2050E2EDB030EDBB005D0FCDA01E065
:10037000D7D2080EDB6A090EDB6A0E0EDBCFF6FF62
:100380000F0EDBCFF7FF100EDBCFF8FF0800F550A4
:10039000DF6EDF5014E0F9EC05F011E208EC06F036
:1003A00003E1151C01E1BCD2BBDB01E3DB2A090E32
:1003B000DB2AD9500E0FE96E000ECBDBE7D7D3DA7C
:1003C00001E1B4D2ADD2C6DA110EEECFDBFF120ED0
:1003D000EDCFDBFF110EDBCFE6FF120EDBCFE6FF2A
:1003E00049EC09F0E552E552130EF3CFDBFF140E92
:1003F000F4CFDBFF060EDB5004E0130ED0DB01E28E
:100400000EDBF3EC05F002E2130EDBDAAFDB05E006
:10041000040EC5DB02E2050ED4DA030EDBB005D014
:10042000A2DA01E07DD2080EDB6A090EDB6A110E4A
:10043000DBCFE9FF120EDBCFEAFFEFCFDFFFDF50AC
:1004400014E0D7DB12E2E4DB03E1151C01E168D222
:1004500067DB01E3DB2A090EDB2A110EDB2ADBCF87
:10046000E9FF120EE8E3DB2AE6D77DDA01E15ED28E
:1004700057D2030EDB8E070EDB0410E195DB040E72
:100480005ADB0A0EEECFDBFF0B0EEECFDBFF0C0EBE
:10049000EECFDBFF0D0EEECFDBFF6CD0070EDB5097
:1004A00003082CE1030EDBAE0DD0B2DA020E76DAD1
:1004B000EFCF14F0156A166A176A14AE39D01568B2
:1004C000166835D0F70EDBCF15F0F80EDBCF16F03F
:1004D000020E155E000E165AF70E15C0DBFFF80E61
:1004E00016C0DBFF15C0E9FF16C0EAFFEFCF14F01E
:1004F0000A0E14C0DBFF0B0EDB6A38D0070EDB5090
:10050000020809E1030EDBAE04D059DB16AE10D0B1
:100510000ED055DB0DD0030EDBAE12D079DA020E11
:100520003DDAF9DA166A176A15AE02D0166817684E
:10053000E2DA0C0E16C0DBFF0D0E17C0DBFF1AD07F
:10054000F70EDBCF16F0F80EDBCF17F0020E165EBB
:10055000000E175AF70E16C0DBFFF80E17C0DBFFB0
:1005600016C0E9FF17C0EAFFD6DAC5DA0C0EDB6A5F
:100570000D0EDB6A060EDB5005E1010EF36E050E73
:10058000F3CFDBFF150EDB6A160EDB6AD950370F8F
:10059000146E000EDA20156E390E14C0DBFF3A0E11
:1005A00015C0DBFF380EDB6A080EDB6A0A0EAEDA16
:1005B000DF50780A12E0200A10E0280A0CE0200A36
:1005C0000AE03F0A06E00D0A02E0200A08E1020EF6
:1005D00005D0080E03D0080EDF26100E97DA030EA2
:1005E000DBBE02D0DB92DB94DB50800B24E08ADAA6
:1005F000D890030EEB50000A08E6000EEE5C000EE9
:10060000EE58000EEE58000EEE5815E213DA0968A7
:100610000A680B680C6811EC09F00A0E00C0DBFFD9
:100620000B0E01C0DBFF0C0E02C0DBFF0D0E03C082
:10063000DBFF2D0E08D0030EDBA202D02B0E03D061
:10064000DBA408D0200EF36E170EF3CFDBFF150EE0
:10065000DB2A02D0170EDB6A050EDB5003E1B7D9A7
:1006600001E189D0B00E146E140E156E000E166ED8
:10067000070EDBCF17F0186A196A1A6A17C009F05B
:1006800018C00AF019C00BF01AC00CF0D3D9A9ECAD
:1006900009F014500024F36E15500120F46E16502A
:1006A0000220F86EF4CFF7FFF3CFF6FF0800090E33
:1006B000F5CFDBFF580EDF5C0FE1610EF36E090E24
:1006C0007BD90AE3200E146E090EDBCFE7FF14502E
:1006D000E75E090EE7CFDBFF070EDBCF14F0156AEC
:1006E000166A176A0FDA14C009F015C00AF016C0AE
:1006F0000BF017C00CF0EECF04F0EECF05F0EECF0C
:1007000006F0EFCF07F0A9EC09F007C0EDFF06C037
:10071000EDFF05C0EDFF04C0EFFF390EDBCFE9FFB1
:10072000DB063A0EDBCFEAFF01E2DB06090EDBCF88
:10073000EFFF150EDB2A4BD995E1030EDBA61DD08A
:100740006F0EDF5C06E1C1D918E3150EDB285BDA1A
:1007500014D0780EDF5C09E0580EDF5C06E0620E14
:10076000DF5C03E0420EDF5C08E1020EF36E160E62
:10077000F3CFDBFF02D0150EDB6A030EDB50100B4C
:100780000EE0040EDBCF14F0050EDB50D8801454BD
:1007900006E2060EDB5003E1040EDB5034DA95D995
:1007A0000AE2050EDBCFE7FF150EDB50E75E050E14
:1007B000E7CFDBFF02D0050EDB6A040EDBCF14F0BF
:1007C000160E45D9D880145414E2160EDBCFE6FF7E
:1007D000150EDBCFE6FF040EDBCFE6FF050EDB5088
:1007E000E552E75CE552D880E754E552D880E754FB
:1007F0005FD9030EDB50010B0BE1080EDB5008E064
:10080000B2D801E08DD0080EDB50BED8080EDB6AEE
:10081000170EDB5007E088D9170EF1D903E1151C3C
:1008200001E17ED0160EDB5016E07ED9300EE66E6A
:100830009FD802E1151C74E077D9DFCFE6FFCFEC3B
:1008400008F0E552E552E552F4CF15F00001F31C33
:1008500002E1151C65E0050EDBCF14F0160EDB502F
:10086000D880145409E2050EDBCFE7FF160EDB50EB
:10087000E75E050EE7CFDBFF300EE66E050ECBD947
:100880004FE1390EDB2ADBCFE9FF3A0E01E3DB2A29
:10089000DBCFEAFF090EEFCFDBFFDB500EE044D9E0
:1008A000090EADD902E1151C3BE0390EDB2ADBCF86
:1008B000E9FF3A0EEDE3DB2AEBD755D831E1160E0E
:1008C000DBCFE6FF080EC3D8E552E7245DD82ED073
:1008D000070EDB50030A1CE0010A14E0030A07E0DC
:1008E0007BD9DBCFEEFF020EDBCFEDFF1FD0F5D8BB
:1008F000196A17AE02D0186819682CD8BCD819C06C
:10090000EEFF14D0EAD817BE186824D8B4D80ED099
:1009100063D9DBCFEFFF0AD07BD905E1151C03E1DA
:10092000F368F46810D0FCD801E3DB2A79D935EFFD
:1009300000F0010EDBCF14F0020EDBCF15F014C077
:10094000F3FF15C0F4FF3B0EE15C02E2E16AE55201
:10095000E16ECBD029D9020E9BEF05F061D90800DA
:10096000F550DF6E1200200EE66E080E0BEF06F05B
:10097000CFEC08F0E552E552E552F3CF14F0F4CF96
:1009800015F00001F31C1200146E156AD950010F06
:100990004DD91450EE261550ED221200185E000EAF
:1009A000195AF70E18C0DBFFF80E19C0DBFF18C08C
:1009B000E9FF19C0EAFF1200DBCFF4FFF350F45C4B
:1009C0001200DB50E76E040EE7CFDBFF12000A0EC9
:1009D000DBCF14F00B0EDBCF15F00C0EDBCF16F0D7
:1009E0000D0EDBCF17F01450151016101710120053
:1009F000130EEECFDBFF140EEDCFDBFF130EDBCFBC
:100A000014F0140EDBCF15F00001800E1514120047
:100A1000F70EDBCF18F0F80EDBCF19F01200050E41
:100A2000DB50E66ED950130F01D9E552E750EE6E58
:100A3000ED6A12000A0EDBCF04F00B0EDBCF05F0DF
:100A40000C0EDBCF06F00D0EDBCF07F01200DBCF74
:100A5000E6FF150EDBCFE6FF050EDB50E552E7247F
:100A6000E552E7241200DB50CED8010EF36E060EDD
:100A7000F3CFDBFF1200EE50EFCFEAFFE96E16C0B6
:100A8000EEFF17C0EEFF18C0EEFF1200D9CFE6FF51
:100A9000DACFE6FFE1CFD9FFE2CFDAFF1200DFCFF6
:100AA000E6FFE66A1AEC0AF0E552E552F35012004E
:100AB000E76E080EE7CFDBFF1200EECF14F0EECFAB
:100AC00015F0EFCF16F0176A1200050EDBCF14F009
:100AD000150EDB50D88014541200010EDBCF16F037
:100AE000020EDBCF17F0186A1200E552E5CFDAFFED
:100AF000E7CFD9FF12000A0E14C0DBFF0B0E15C0A2
:100B0000DBFF1200D9500A0F16EF06F0F36E070E46
:100B1000F3CFDBFF1200EECF14F0EFCF15F0120091
:100B2000010EDB2A020E1200FC0EDBCFE6FFFD0EEB
:100B3000DBCFE6FF1200145E000E155AF70E14C04C
:100B4000DBFFF80E15C0DBFF14C0E9FF15C0EAFF9C
:100B50001200DA20EA6EEF2AEECFF6FF000EEF2247
:100B6000EECFF7FFEF22EECFF8FF1200040EDBCF3F
:100B7000E6FF130EDB50E552E75C9ADFDB5004DF43
:100B8000060EDB501200090EDB500A0DF350DF2475
:100B9000D00FE76E090EE7CFDBFFAEEF04F0DB50BE
:100BA000F36E050EDCEF04F0F70EDBCF14F0F80E59
:100BB000DBCF15F01200DFCFE6FFB8EF04F028DF3F
:100BC000030EECDE5DEF05F00AEC00F0E552E552B5
:100BD000E552E55200091200BDDEEE50EFCFEAFF0C
:100BE000E96E010E1200130EDB50F36E040EDCEF03
:100BF00004F0040EDB50F36E090EDCEF04F0DBCFE3
:100C0000E6FFB8EF04F0E76E050EE7CFDBFF12005A
:100C10008BDFDBEF05F0DBCFE6FF86DFE4EF05F0EF
:100C2000D950F90FE96EFF0EA9EF05F0E96E000E3D
:060C3000DA20EA6E12005A
:0A0C3600410E0001705D5DE1440E07
:100C4000715D5AE1300E725D57E1010EC26EC282D3
:100C5000C2B2FED7C3CF60F0C4CF61F00001626BB7
:100C6000636B60C068F061C069F062C06AF063C025
:100C70006BF0880E096E130E0A6E0B6A0C6A68C060
:100C800004F069C005F06AC006F06BC007F011EC13
:100C900009F000C068F001C069F002C06AF003C04A
:100CA0006BF00968030E0A6E0B6A0C6A68C004F0E8
:100CB00069C005F06AC006F06BC007F0A9EC09F046
:100CC00004C068F005C069F006C06AF007C06BF0A8
:100CD00068C0E6FF69C0E6FF6AC0E6FF6BC0E6FFDA
:100CE000C80EE66E0F0EE66E000EE66E3EEC08F0E5
:100CF000146E070EE15E1450540E0001705D5DE14C
:100D00004D0E715D5AE1500E725D57E10D0EC26ECF
:100D1000C282C2B2FED7C3CF60F0C4CF61F000017F
:100D2000626B636B60C06CF061C06DF062C06EF0AE
:100D300063C06FF0F40E096E010E0A6E0B6A0C6A46
:100D40006CC004F06DC005F06EC006F06FC007F017
:100D500011EC09F000C06CF001C06DF002C06EF043
:100D600003C06FF00968030E0A6E0B6A0C6A6CC050
:100D700004F06DC005F06EC006F06FC007F0A9EC7E
:100D800009F004C06CF005C06DF006C06EF007C03D
:100D90006FF06CC0E6FF6DC0E6FF6EC0E6FF6FC08F
:100DA000E6FFAB0EE66E0F0EE66E000EE66E3EEC54
:100DB00008F0146E070EE15E14501200880EE66E05
:100DC0000F0EE66E000EE66E3EEC08F0E552E552C0
:100DD000E552010EE66EECEC09F0E552680EE66EA7
:100DE0000F0EE66E000EE66E3EEC08F0E552E552A0
:100DF000E552010EE66EECEC09F0E552310EE66EBE
:100E00000F0EE66E000EE66E3EEC08F0E552E5527F
:100E1000E552010EE66EECEC09F0E552EC0EE66EE2
:100E20000E0EE66E000EE66E3EEC08F0E552E55260
:100E3000E5521200D9CFE6FFE1CFD9FF020EE1263D
:100E40009280928694949288190EE66EE66A3C0E21
:100E5000E66E8AEC08F0E552E552E552A10EC06E4E
:100E60000B0EC16EABDF9EAAFED7CDEC09F0E66E8D
:100E7000DECFE9FFDDCFEAFF700EE926000EEA22A1
:100E8000E552E750EF6EDECFE9FFDDCFEAFF700EEF
:100E9000E926000EEA22EF50E66E03EC0AF0E55276
:100EA000010EE66EECEC09F0E552DF2A010E01E3DB
:100EB000DB2ADECFE9FFDDCFEAFFE906000EEA5AC2
:100EC000700EE926000EEA22EF500D0804E1B3DEB1
:100ED000DE6ADD6A73DFC7D7020EE15C02E2E16A17
:0C0EE000E552E16EE552E7CFD9FF1200A9
:040EEC002D456E76AC
:100EF000696520544D502070617261207265746F75
:100F0000726E617220436F6E76657273616F2041FD
:100F10002F4420646F2043616E616C20332E2028A3
:100F200054656D7065726174757261290D0A0D0AE0
:100F3000000D0A2D456E76696520414430207061B0
:100F40007261207265746F726E617220436F6E768B
:100F5000657273616F20412F4420646F2043616E7E
:100F6000616C20302E0D0A004D6963726F636F6EE5
:100F700074726F6C61646F723A205049432031384B
:100F800046323535300D0A004B69742064652044C3
:100F90006573656E766F6C76696D656E746F2041F2
:100FA00043455049432032380D0A000D0A54656DFF
:100FB0007065726174757261203D202530326C75E8
:100FC00020432E0D0A0D0A000D0A414E30203D200F
:0E0FD0002530346C75206D562E0D0A0D0A006A
:020FDE00060EFD
:100FE000F66E000EF76E000EF86E00010900F55067
:100FF0007A6F0900F5507B6F03E17A6701D03DD02D
:101000000900F550756F0900F550766F0900F5502D
:10101000776F09000900F550E96E0900F550EA6E96
:10102000090009000900F550786F0900F550796F43
:1010300009000900F6CF7CF0F7CF7DF0F8CF7EF005
:1010400075C0F6FF76C0F7FF77C0F8FF0001785350
:1010500002E1795307E00900F550EE6E7807F8E2F7
:101060007907F9D77CC0F6FF7DC0F7FF7EC0F8FF97
:0C10700000017A07000E7B5BBFD7120066
:04107C00D9CFE6FFE3
:10108000DACFE6FFE1CFD9FFE2CFDAFFE652E65250
:10109000E652E652D950FB0F146EFF0EDA20156EA1
:1010A00014C0DEFFDD6EDECFE6FFDDCFE6FFFB0E18
:1010B000DBCFE6FFFC0EDBCFE6FFFD0EDBCFE6FF6E
:1010C0007FC0E6FF80C0E6FF20EC00F0146E070E44
:1010D000E15C02E2E16AE552E16E1450020EF3CFE8
:1010E000DBFF030EF4CFDBFF020EDBCF14F0030EA9
:1010F000DBCF15F014C0F3FF15C0F4FF040EE15C64
:1011000002E2E16AE552E16EE552E5CFDAFFE7CFB0
:04111000D9FF1200F1
:0C111400D9CFE6FFDACFE6FFE1CFD9FF2C
:10112000E2CFDAFFAC6AAB6AFD0EDBB0AC88DBA2C3
:1011300002D0AC8CAB8CDBB4AC8EDBA602D0AB881F
:1011400001D0AB8ADBB8AC849E98DBBAAB86DBAC53
:1011500002D09D8A01D09D9A9E9ADBAE02D09D88D6
:1011600001D09D98FB0EDB50AF6EFB0EFC0EDBCF6B
:1011700015F015C014F0156A1450B06EAC8AAB8E21
:10118000949C948EAC50100B04E0AC50800B01E1A9
:0E119000948CE552E5CFDAFFE7CFD9FF1200CD
:02119E00D9CFA7
:1011A000E6FFDACFE6FFE1CFD9FFE2CFDAFFFB0EB1
:1011B000DBCF14F0FC0EDBCF15F00001800E151410
:1011C0001AE1FB0EDBCFE9FFFC0EDBCFEAFFEECF2F
:1011D000F3FFEDCFF4FFEE2A000EEF22F3CFE9FF8D
:1011E000F4CFEAFFFD0EDBCFEFFFEF50156AF36E91
:1011F00015C0F4FF10D0FB0EDB50FE0806E1FD0E1B
:10120000DBCFE6FF4AEC0AF005D0FD0EDBCFE6FFB0
:1012100061EC0AF0E552E552E5CFDAFFE7CFD9FFFE
:021220001200BA
:0E12220004500902F3CF00F0F4CF01F00A02ED
:10123000F3500126000EF420026E04500B02F3500E
:101240000226000EF420036E04500C02F350032615
:1012500005500902F3500126F4500222000E032229
:1012600005500A02F3500226F450032205500B02E7
:10127000F350032606500902F3500226F4500322CD
:1012800006500A02F350032607500902F3500326C2
:0212900012004A
:0E129200FE0EE3CFE9FFFF0EE3CFEAFFF36AA3
:1012A000F46AEE5203E0F34AF42AFBD71200FF0E71
:1012B000E3CFF8FFE552FF0EE3CFF7FFE552FF0E55
:1012C000E3CFF6FFE552E66AE66AE66A0900F55200
:1012D00009E0FD0EE32A05E1FE0EE32A02E1FF0E1E
:1012E000E32AF4D7FD0EE3CF05F0FE0EE3CF06F0C0
:0812F000FF0EE3CF07F012002E
:0812F80007C013F006C012F05C
:1013000006500B02F4CF05F0F3CF04F007500C02A7
:10131000F4CF07F0F3CF06F00B02F3500526F4509C
:101320000622E86A072212500C02F3500526F450F8
:101330000622E86A07220CAEA2EF09F01250065E00
:101340001350075A13AE000C0B50065E0C50075A90
:02135000000C8F
:0E135200036A026A016A006A200EE76ED890F4
:1013600004360536063607360036013602360336B1
:101370000950005C0A5001580B5002580C50035899
:1013800009E30950005E0A50015A0B50025A0C50F2
:0A139000035A042AE72EE4D71200E6
:06139A00D9CFE6FFDACF17
:1013A000E6FFE1CFD9FFE2CFDAFFE652F20E00010D
:1013B0008117ABAC03D08191ABB08181ABB4818597
:1013C000ABB28187AE50DF6EDF50E552E552E5CF1C
:0813D000DAFFE7CFD9FF12009C
:0813D800FF0EE3501C6EEF0E46
:1013E00001D0F30EE76EE72EF3EF09F00C0E1B6E43
:1013F000E76AE72EF9EF09F01B2EF8EF09F01C2E33
:06140000F1EF09F01200FB
:0A140600D9CFE6FFDACFE6FFE1CF11
:10141000D9FFE2CFDAFFACAC04D0AC90000181B3CD
:10142000AC80FD0EDB50AD6EE552E5CFDAFFE7CFC5
:04143000D9FF1200CE
:0C143400F36AF46AFF0EE124E96EFF0E7B
:10144000E220EA6EED6607D02F0EEF6404D03A0E6C
:08145000EF6001D0F32A120045
:08145800000EF36E00EE00F03F
:10146000080E01D81200EA6002D0EE6AFCD7F350F1
:08147000E9601200EE6AFCD7EE
:0814780013EE00F023EE00F07A
:10148000F86A0F9CEFEC07F062EC0AF01AEC07F038
:04149000FBD7120074
:0C149400FF0EE350ACBA04D0AF6AAB8E80
:1014A000AC8A949CACA2FED7AD6EF36EF46A1200C7
:1014B00030313233343536373839616263646566CA
:0114C000002B
:0214C200120016
:0214C400120014
:0214C600FEFF27
:020000040030CA
:0100000000FF
:010001000CF2
:010002000EEF
:010003001EDE
:010006008178
:00000001FF
