:1000000000308A00562800000A108A100A11820760
:100010004D346934633472346F3463346F346E3406
:10002000743472346F346C34613464346F347234C9
:1000300065347334203450344934433420343134FB
:10004000363446343834383437342E340D340A34A8
:1000500000340A108A100A1182074C3444343134B7
:1000600020342D3420344134433445344E34443428
:10007000453420344C3431342E340D340A340034B9
:100080000A108A100A11820744344C343134203467
:100090002D342034413450344134473441342034F9
:1000A0004C3431342E340D340A340034840183133B
:1000B0001F308305193083169900A23098009030C4
:1000C0008312980083161F149F141F159F11073069
:1000D0009C00860183128601AA012A08093C031CA0
:1000E000782820302A07840083138001AA0A6D280B
:1000F000AA01AB012B080420AB0AF70077080C1EFD
:100100007F28990020302B02031D7A28AB012B0891
:100110002920AB0AF70077080C1E8C2899001230B2
:100120002B02031D8728AB012B084020AB0AF700E8
:1001300077080C1E9928990011302B02031D942872
:1001400020302A07840083138C1EA4281A088000FC
:1001500020302A07840083130008AB002B080C1EF4
:10016000AF28990020302A078400831300080D3C33
:10017000031DE82820084C3C031DCA282108443CE4
:10018000031DCA282208313C031DCA280614831601
:10019000061083122008443C031DDA2821084C3C39
:1001A000031DDA282208313C031DDA2806108316C5
:1001B00006108312AA012A08093C031CE6282030F5
:1001C0002A07840083138001AA0ADB28AA01E928F0
:0601D000AA0AA02863004A
:02400E00323F3F
:00000001FF
;PIC16F876A
