:1000000000EF01F0F76A140FF66E000EF7220900F8
:10001000F5501200280C01060C20202050494331D5
:1000200038463235353000000A54455354204C438D
:100030004420444953504C41590054657374204C3A
:10004000434420446973706C617900000A202020C9
:1000500050494331384632353530202020000C20BD
:1000600020205049433138463235353000000A549B
:10007000455354204C434420444953504C4159006B
:10008000EA6A080EE96EEF500DE0020E016E006A9A
:10009000002EFED7012EFBD7970E006E002EFED746
:1000A000EF2EF3D712000FB002D08A9801D08A88C1
:1000B00093980FB202D08A9A01D08A8A939A0FB489
:1000C00002D08A9C01D08A8C939C0FB602D08A9E63
:1000D00001D08A8E939E93968A8693968A96120072
:1000E00093948A940C5202E18A9401D08A84939466
:1000F000420E006E002EFED7000093968A960D38B1
:100100000E6E0F0E0E160EC00FF0CDDF0D500F0B42
:100110000E6E0F6EC8DF120093988A98939A8A9A8F
:10012000939C8A9C939E8A9E93948A9493968A9693
:100130000F0E086EA5DF010E056E0550030808E3DB
:10014000030E0F6EB0DF050E086E9ADF052AF5D795
:10015000020E0F6EA8DF056A0550030809E3036A63
:10016000055050DF066E0C6A0D6EBADF052AF4D713
:100170000BEF01F0092C01D003D0400E0A6E01D024
:100180000A6A010E085C0A260A5080090B6E0C6A86
:100190000D6EA6DFEFEF00F007500C0A07E0060A2D
:1001A0000DE0070A0BE0050A0FE013D00C6A010E00
:1001B0000D6E96DF020E086E63DF11D0010E086E21
:1001C000020E096ED7D70BD00C6A100E0D6E88DFA9
:1001D00006D0010E0C6E07C00DF082DF00D01200B9
:1001E0000900F5520CE0F6CF05F0F7CF06F0F5CF99
:1001F00007F0D2DF05C0F6FF06C0F7FFF1D7120007
:10020000F86AD09EEA6AE96AC150C00B0F09C16E54
:10021000070EB46E81D7180EF66E000EF76EE0DF93
:10022000280EF66E000EF76EDBDF080E056EFA0E76
:10023000086E26DF052EFBD70C0E076EADDF3A0EDB
:10024000F66E000EF76ECCDF4C0EF66E000EF76EFB
:10025000C7DF080E056EFA0E086E12DF052EFBD7FB
:100260005E0EF66E000EF76EBBDF6E0EF66E000EC3
:08027000F76EB6DFDAD70300D8
:020000040030CA
:0E00000027CC3E1E008781000FC00FE00F408E
:00000001FF
;PIC18F2550
;CRC=0B24  CREATED="24-ago-12 09:08"
