:1000000000308A00B0280000FF00030E8301A10029
:100010000A08A0008A010408A2007708A300780853
:10002000A4007908A5007A08A6007B08A70083131E
:1000300083128B1E1D280B193028220884002308E8
:10004000F7002408F8002508F9002608FA00270818
:10005000FB0020088A00210E8300FF0E7F0E09009E
:100060008A110A123328A80A2808033C03183A28E0
:100070000130A8002808013A03194528033A03195A
:100080005828013A03196B287E2830302A0784004B
:1000900083132B1883170008BE0083168601831272
:1000A0003E088600831685010230831285007E2873
:1000B00030302C07840083132D1883170008BE00EE
:1000C0008316860183123E0886008316850104305C
:1000D000831285007E2830302E07840083132F186A
:1000E00083170008BE008316860183123E0886002F
:1000F000831685010830831285007E2864308100D4
:100100000B118A110A121D283C08F8013B02031842
:100110008C283B08F7009828F7010830BD00BB0D7C
:10012000F70D3C0877020318F700F80DBD0B8F2878
:1001300000343B308400831300080319AD280130DC
:10014000F800F701F70BA228F80BA1284A30F700B6
:10015000F70BA828AB28800B9F288A110A120A29BE
:10016000840183131F308305831603170908C039E0
:10017000890003131F129F12003003178800831297
:100180008701880189010313A8013F30B0000630C0
:10019000B1005B30B2004F30B3006630B4006D3058
:1001A000B5007D30B6000730B7007F30B8006F3043
:1001B000B900E0308B0483160108C0390338810090
:1001C000643083128100A90A2908643C031CA90138
:1001D0002908BB006430BC008420AB017808AA0069
:1001E0002908BB000A30BC0084207808BB000A3014
:1001F000BC008420AD017708AC002908BB000A30A0
:10020000BC008420AF017708AE000230BA00FA309B
:0C021000BB009928BA0B0729E328630003
:04400E00E42CFF3F60
:00000001FF
;PIC16F886
;CRC=0A6D  CREATED="09-nov-09 16:54"
