:100000002EEF01F04D6963726F636F6E74726F6CE7
:1000100061646F7265732050494320313846323530
:1000200035302E0D0A004C65697475726120646F5D
:10003000732063616E61697320414E3020652041F9
:100040004E330D0A0D0A0000414E30203D20253070
:10005000346C75206D56202D2054656D703A202526
:1000600030326C7520430D0A00000900F5520DE096
:10007000F6CF0CF0F7CF0DF0F5509EA8FED7AD6E81
:100080000CC0F6FF0DC0F7FFF0D71200146A156A16
:10009000010E166EDA6AD96A196A0C0E186EEA6ACF
:1000A000100EE96E19C0E2FF18C0E1FF16C017F08C
:1000B000D890E550EE02F3501422F4501522172E7A
:1000C000F7D714C0DEFF15C014F0156AD8B0152A92
:1000D000182AD8B4192A162A16500508E0E1120089
:1000E000D8B203D0EA6A200EE96E006A016A026A99
:1000F000036A206A216A226A236A1F501E101D109B
:100100001C102CE0200E246ED890183619361A36A2
:100110001B3620362136223623361F50235C08E159
:100120001E50225C05E11D50215C02E11C50205C48
:100130000FE31C50205E1D50D8A01D3C215E1E50B8
:10014000D8A01E3C225E1F50D8A01F3C235ED88042
:100150000036013602360336242ED6D720C0EFFFF4
:1001600021C0ECFF22C0ECFF23C0ECFF120009000D
:10017000F6CF0DF0F7CF0EF0F5509EA8FED7AD6E7E
:100180000DC0F6FF0EC0F7FF0C2EF1D71200E9509C
:10019000106E3B0E176E9A0E166ECA0E156E146A0E
:1001A0000A0E126ED882EA6A0C0EE96E0FC01BF0BE
:1001B0000EC01AF00DC019F00CC018F017C01FF0D7
:1001C00016C01EF015C01DF014C01CF089DF0150D0
:1001D00000520FE11250010A0CE010500BE00F0B1F
:1001E000125C01E00DE210BE0BD010BC03D0200E5B
:1001F00002D0106A300E002600509EA8FED7AD6EC9
:10020000D89217C01BF016C01AF015C019F014C010
:1002100018F01F6A1E6A1D6A0A0E1C6E61DF03C099
:1002200017F002C016F001C015F000C014F0122E35
:10023000B9D71200EA6A0D0EE96EEF500DE0020E1A
:10024000016E006A002EFED7012EFBD7970E006EBE
:10025000002EFED7EF2EF3D707EF02F0F86AD09EFC
:10026000EA6AE96AB896190EAF6EA60EAC6E900EE9
:10027000AB6EC150C00B0F09C16E070EB46EC150FA
:10028000C00B0B09C16EC050C00B0109C06EC08EFF
:10029000C280040EF66E000EF76EE7DE260EF66ED6
:1002A000000EF76EE2DE000E016EC250C30B0110AD
:1002B000C26E420E006E002EFED70000C282C2B295
:1002C000FED7C3CF04F0C4CF05F0066A076A07C0A3
:1002D0000FF006C00EF005C00DF004C00CF0136A5C
:1002E000126A130E116E880E106ED0DE03C00FF06E
:1002F00002C00EF001C00DF000C00CF0D89203C097
:100300001BF002C01AF001C019F000C018F01F6AFB
:100310001E6A030E1D6E1C68E3DE03C007F002C0F8
:1003200006F001C005F000C004F00C0E016EC250D2
:10033000C30B0110C26E420E006E002EFED70000ED
:10034000C282C2B2FED7C3CF08F0C4CF09F00A6A96
:100350000B6A0BC00FF00AC00EF009C00DF008C008
:100360000CF0136A126A010E116EF40E106E8EDE1E
:1003700003C00FF002C00EF001C00DF000C00CF081
:10038000D89203C01BF002C01AF001C019F000C0DF
:1003900018F01F6A1E6A030E1D6E1C68A1DE03C0E2
:1003A0000BF002C00AF001C009F000C008F0480ECE
:1003B000F66E000EF76E060E0C6ED9DE440EE96E78
:1003C00007C00FF006C00EF005C00DF004C00CF021
:1003D000DEDE530EF66E000EF76E0C0E0C6EC7DEF0
:1003E000420EE96E0BC00FF00AC00EF009C00DF00E
:1003F00008C00CF0CCDE640EF66E000EF76E040E34
:100400000C6EB5DE040E0C6EFA0E0D6E13D70C2EAC
:06041000FBD749D70300F1
:020000040030CA
:0E00000027CC3E1E008781000FC00FE00F408E
:00000001FF
;PIC18F2550
;CRC=094A  CREATED="24-ago-12 10:45"
