:10000000A0EF01F04D6963726F636F6E74726F6C75
:1000100061646F7265732050494320313846323530
:1000200035302E0D0A005574696C697A616E646F03
:10003000206F2070726F746F636F6C6F2049324352
:100040002E2E2E0D0A005072657373696F6E652037
:100050004231207061726120677261766172206541
:100060002042322070617261207665722E0D0A0086
:1000700047726176616E646F206E61206D656D6F91
:1000800072696120454550524F4D20657874657204
:100090006E612E2E2E0D0A005072657373696F6E9D
:1000A000652042322070617261207665722E0D0AE1
:1000B0000000456E64657265636F203030206461B6
:1000C000206D656D6F7269613A2025630D0A00002D
:1000D000456E64657265636F203031206461206D08
:1000E000656D6F7269613A2025630D0A0000456EE7
:1000F00064657265636F203032206461206D656DC8
:100100006F7269613A2025630D0A0000456E6465CF
:100110007265636F203033206461206D656D6F728E
:1001200069613A2025630D0A0000456E64657265B9
:10013000636F203034206461206D656D6F7269617A
:100140003A2025630D0A0000456E64657265636F91
:10015000203035206461206D656D6F7269613A20D1
:1001600025630D0A00005072657373696F6E652018
:100170004231207061726120677261766172206520
:100180002042322070617261207665722E0D0A0065
:100190000900F5520DE0F6CF05F0F7CF06F0F55067
:1001A0009EA8FED7AD6E05C0F6FF06C0F7FFF0D7DC
:1001B0001200080E016E00D08A92939200D00000C7
:1001C00008368A90D8B09380D8A09390938281A269
:1001D000FED7012EF0D700D08A9293920000938030
:1001E00000D0000000D00000938281A2FED7016AF7
:1001F00000D0000081B001808A9293928A909390FF
:100200001200EA6A080EE96EEF500DE0020E016E70
:10021000006A002EFED7012EFBD7970E006E002E2F
:10022000FED7EF2EF3D71200938000D0938200D038
:1002300000008A90939000D08A929392A00E086E4C
:10024000B8DF05C008F0B5DF07C008F0B2DF939053
:100250000000938281A2FED700D000D000009380DE
:1002600000D0050E086ECDDF1200080E096E00C02A
:100270000AF0938000D00000938281A2FED781B063
:10028000D88081A0D890013600D093928A92092E0E
:10029000F0D7938000D000008A900A50D8A49390A1
:1002A0000000938281A2FED700D08A92939200D060
:1002B00000008A9093907EEF01F0938000D09382AB
:1002C00000D000008A90939000D08A929392A00E62
:1002D000086E6FDF05C008F06CDF938000D093825A
:1002E00000D0000081A2FED78A90939000D08A921D
:1002F0009392A10E086E5DDF006AB7D701C007F0C8
:1003000093900000938281A2FED700D000D000001D
:10031000938000D0050E086E74DF07C001F0120054
:100320000900F6CF07F0F7CF08F0F5509EA8FED7EA
:10033000AD6E07C0F6FF08C0F7FF062EF1D712001A
:10034000F86AD09EEA6AE96AB896190EAF6EA60EF0
:10035000AC6E900EAB6EC150C00B0F09C16E070E94
:10036000B46E040EF66E000EF76E12DF260EF66EF9
:10037000000EF76E0DDF460EF66E000EF76E08DF0C
:10038000928480A434D0700EF66E000EF76E00DFFB
:10039000066A056A410E076E47DF066A010E056EA2
:1003A000430E076E41DF066A020E056E450E076EAC
:1003B0003BDF066A030E056E500E076E35DF066AD8
:1003C000040E056E490E076E2FDF066A050E056ED8
:1003D000430E076E29DF020E056EFA0E086E11DF5E
:1003E000052EFBD7980EF66E000EF76ED1DE9288C2
:1003F00080A8A1D0066A056A60DF01C005F0B20ED0
:10040000F66E000EF76E180E066E8ADF05509EA877
:10041000FED7AD6E0D0E9EA8FED7AD6E0A0E9EA83D
:10042000FED7AD6E066A010E056E47DF01C005F00E
:10043000D00EF66E000EF76E180E066E71DF0550C8
:100440009EA8FED7AD6E0D0E9EA8FED7AD6E0A0E0D
:100450009EA8FED7AD6E066A020E056E2EDF01C0A5
:1004600005F0EE0EF66E000EF76E180E066E58DFF3
:1004700005509EA8FED7AD6E0D0E9EA8FED7AD6EA0
:100480000A0E9EA8FED7AD6E066A030E056E15DF36
:1004900001C005F00C0EF66E010EF76E180E066E1A
:1004A0003FDF05509EA8FED7AD6E0D0E9EA8FED76D
:1004B000AD6E0A0E9EA8FED7AD6E066A040E056EDE
:1004C000FCDE01C005F02A0EF66E010EF76E180E66
:1004D000066E26DF05509EA8FED7AD6E0D0E9EA8B7
:1004E000FED7AD6E0A0E9EA8FED7AD6E066A050E4B
:1004F000056EE3DE01C005F0480EF66E010EF76EE4
:10050000180E066E0DDF05509EA8FED7AD6E0D0EBF
:100510009EA8FED7AD6E0A0E9EA8FED7AD6E020E47
:10052000056EFA0E086E6DDE052EFBD7660EF66EB2
:0A053000010EF76E2DDE24D7030044
:020000040030CA
:0E00000027CC3E1E008781000FC00FE00F408E
:00000001FF
;PIC18F2550
;CRC=DC98  CREATED="24-ago-12 14:02"
