:1000000001308A009C2900000A108A100A11820718
:1000100028340C34013406348C29B01E2536750082
:100020008A29B11E253675002F30840083130008FD
:10003000031927280230F800F701F70B1D28F80BE9
:100040001C289730F700F70B2328800B1A2808008C
:1000500036182C2806122D2806168316061283122F
:10006000B61834288612352886168316861283120F
:1000700036193C2806133D280617831606138312EB
:10008000B6194428861345288617831686138611C9
:100090008312861583168611831286110800831633
:1000A000061183120611B308031D5828061159289A
:1000B0000615831606114230F700F70B5D28000085
:1000C000861183128611340EB5000F30B505350840
:1000D000B600282034080F39B500B60028200800E3
:1000E0008316061283120612831686128312861254
:1000F0008316061383120613831686138312861340
:100100008316061183120611831686118312861137
:100110000F30AF0014200130A5002508033C031C5C
:1001200099280330B60028200530AF001420A50A16
:100130008D280230B6002820A5012508033C031CA9
:10014000AA2825080420A600B3012608B4004F20E1
:10015000A50A9D288A110A12AB292E080C3A031908
:10016000BB28063A0319C328073A0319C328053ADE
:100170000319D928DE28B3010130B4004F20023022
:10018000AF001420E4280130AF000230B000300B83
:10019000CA28CD284030B100CE28B10101302F024D
:1001A000B10731088038B200B3013208B4004F20E3
:1001B000E428B3011030B4004F20E4280130B3002C
:1001C0002E08B4004F20E42808000B08A6008B136B
:1001D000831603178C170C1400000000031817294E
:1001E00083120C087F390313A70003170D080313AC
:1001F000A80003170F080313A9002708AE00AD20BD
:10020000280803178D000313290803178F0083168E
:100210008C170C140000000083120313A50B112986
:1002200014298316031717293629831603178312F7
:100230000C0D0E0D7F390313A70003170D080313D0
:10024000A80003170F080313A9002708AE00AD206C
:10025000280803178D000313290803178F008D0A40
:1002600003198F0A03100313A50BE828A61B8B178D
:100270000800AD010408AC002D10831B2D14260EC0
:10028000F038A800A807E23EA900323EAB002608DD
:100290000F39A907A907AB07E93EAA00AA07AA07D1
:1002A000250E0F39AA07AB07AA0DAB0DAB09AB0D95
:1002B00025080F39AB07A80D0730A7000A30AB0798
:1002C000AA03031C5F29AA07A903031C6329A90722
:1002D000A803031C6729A807A703031C6B29273061
:1002E0008400831307302C052C1384072B30040261
:1002F00003192C170008F700031D86292C1B8629DB
:100300002C1A9829AC19862920308929AC152C1271
:100310003030F707A6010408A5002610831B261419
:100320007708AE00AD2025088400831326188317B4
:10033000840A2C1F76290800840183131F3083054B
:10034000FF30A40083161F149F141F159F11073040
:100350009C008312702883161F109F101F159F1179
:100360001F1383121F179F1383169F1783121F14C7
:10037000241124088316870083120711831605159C
:100380008312051DC92924112408831687008312AE
:1003900007150030F8001F08C73978049F00423065
:1003A000F700F70BD12900001F151F19D529831657
:1003B0001E088312A0001E08A1000C3003178D0038
:1003C00000308F00031004300313A500E520103027
:1003D00084002108A6002008A50039211830F80063
:1003E0001F08C73978049F004230F700F70BF62941
:1003F00000001F151F19FA2983161E088312A20078
:100400001E08A300103003178D0000308F0003106A
:1004100004300313A500E520103084002308A60053
:100420002208A5003921A308031D1A2A22084F3CDF
:100430000318202A24112408831687008312071129
:100440000230A5009630AF001420A50B222ABE2949
:02045000630047
:02400E00723FFF
:00000001FF
;PIC16F876A
;CRC=EB47  CREATED="24-ago-12 09:15"
