:1000000000308A002F2900000A108A100A11820786
:1000100028340C34013406340A108A100A1182077D
:100020000C342034203420345034493443343134B7
:100030003634463438343834363400340A108A10B2
:100040000A1182070A34543445345334543420346A
:100050004C344334443420344434493453345034DD
:100060004C344134593400340A108A100A11820782
:10007000543465347334743420344C34433444344D
:10008000203444346934733470346C3461347934DA
:1000900000340A108A100A1182070A3420342034EE
:1000A00020345034493443343134363446343834CF
:1000B0003834363420342034203400342330840063
:1000C00083130008031972280130F800F701F70BB9
:1000D0006728F80B66284A30F700F70B6D28702860
:1000E000800B642800342A18772806127828061610
:1000F000831606128312AA187F2886128028861675
:100100008316861283122A19872806138828061751
:10011000831606138312AA198F2886139028861730
:100120008316861305118312051583160511831294
:10013000051100348316851083128510A708031D4E
:10014000A3288510A4288514831685102130F70074
:10015000F70BA828051183120511280EA9000F30EE
:10016000A9052908AA00732028080F39A900AA00A8
:100170007320003483160612831206128316861229
:1001800083128612831606138312061383168613B0
:10019000831286138316851083128510831605112A
:1001A000831205110F30A3005E200130A100210849
:1001B000033C031CE3280330AA0073200530A3008E
:1001C0005E20A10AD7280230AA007320A1012108CD
:1001D000033C031CF42821080420A200A7012208E4
:1001E000A8009A20A10AE7288A110A1244292208A5
:1001F0000C3A03190529063A03190D29073A031980
:100200000D29053A031923292829A7010130A8003F
:100210009A200230A3005E202E290130A300023074
:10022000A400240B142917294030A5001829A50182
:1002300001302302A50725088038A600A70126085B
:10024000A8009A202E29A7011030A8009A202E2954
:100250000130A7002208A8009A202E29003484012A
:1002600083131F308305831603170908C0398900DB
:1002700003131F129F120030031788008312870197
:10028000880189010313BA28A10121080C20A10AC1
:10029000F700A200F7200D302102031D4529A1011E
:1002A00021081E20A10AF700A200F7201130210228
:1002B000031D50290830A100FA30A3005E20A10BD5
:1002C0005C290C30A200F720A10121083420A10AEA
:1002D000F700A200F72010302102031D6529A101BB
:1002E00021084920A10AF700A200F72010302102BE
:1002F000031D70290830A100FA30A3005E20A10B75
:100300007C29A10121080C20A10AF700A200F720F6
:100310000D302102031D8229A10121081E20A10AFE
:10032000F700A200F72011302102031D8D295A2960
:02033000630068
:04400E00E42CFF3F60
:00000001FF
;PIC16F886
;CRC=956E  CREATED="09-nov-09 16:53"
